:040000008031AA2879
:100008007E14803120007F08D200D401D501931DD1
:100018003C2828001E112000D601D7015708803A35
:10002800D10080305102031D1B28063056020318E8
:100038003A2807302000D1005108F00056088231D4
:10004800EC228031213E8131DF21803101302000D6
:10005800D6070030D73D5708803AD100803051028A
:10006800031D382806305602031C1D282000931152
:10007800111F4F282130D1005108FC000430213EC7
:1000880086008701413F8A00403F0A0080312100F5
:100098009D1020001113911E5828230019082000D4
:1000A800D1005108D3009112911C5E2821009D14A3
:1000B800200091102700931C6C2801302000D400E8
:1000C8000030D50028308231C522803127009310B6
:1000D800131D792801302000D4000030D5002F30BE
:1000E8008231C522803127001311931D86280130E3
:1000F8002000D4000030D50036308231C52280314E
:1001080027009311131E932801302000D4000030DB
:10011800D5003D308231C522803127001312931E4D
:100128009F2801302000D4000030D50044308231AF
:10013800C522270093122000540855042800031DE7
:100148001E1520005208FF007E1009008031AC28DF
:1001580020308400003085002B3083310E237E1040
:10016800200082310A2A2000DF01E0016008803A7D
:10017800DC0080305C02031DC32806305F020318D0
:100188001C2920005F08DC000730DD005D08D8006E
:100198005F088231DA228031213E86008701200003
:1001A8005C0881000C30DC000030DD000730DE0028
:1001B8005E08D8005F088231DA228031023E213E93
:1001C8008600870120005C08C03F5D08C13F5F08CA
:1001D800DC000730DD005D08D8005F088231DA22D4
:1001E8008031013E213E8600870120005C088100A5
:1001F8000730DC005C08D8005F088231DA228031E1
:10020800043E213E860087012E30C03F0230C13FA8
:1002180001302000DF070030E03D6008803ADC0054
:1002280080305C02031D1A2906305F02031CC528B2
:1002380051302000A5000230A6001430B30003306E
:10024800B40008008B2923009F112F2923009F1138
:10025800332923009F151E11342923009F151E15CD
:1002680023001F142000911E36292300190820009E
:10027800D8005808D90023001B081C040319482972
:1002880001309B0200309C3B9F1F60299F13200078
:100298005D08003A0319512934295C08003A03190A
:1002A8002729013A03192A29033A03192D29013A62
:1002B80003193129342934299F1965291C08031D7C
:1002C8004B292000DA01DB015B08803AD800803036
:1002D8005802031D712902305A0203180800200031
:1002E800911E732955302300190603198F290130EF
:1002F8002000DC070030DD3D5D08803AD800803002
:100308005802031D892904305C02031C4B29200074
:10031800DC01DD014B2901302000DA070030DB3D2C
:100328006829383021009900C8308B000E108E10D3
:100338000E118E1122008E0121000C1423000C14C2
:1003480021008C1423008C1021000C1523000C11A3
:1003580021008C150C1623000C1221008C16270086
:1003680092141215121691159116013021009D0054
:1003780080309E0020001113210011177F302000CB
:100388009C0021009114203028009E007D309D00A3
:100398002100931522009D171D1523009F151E157A
:1003A80000309C000C309B001E129D179E161D16D7
:1003B8002100911608002000D0005008063E860053
:1003C8008701011C08005008063E86008701010CC1
:1003D8000139FD0050088231AB2281317D06031DB1
:1003E800080020005008FD007D08FC005008043E6D
:1003F80086008701413F8A00403F0A008231200081
:100408005008063E860087010110080081319521B9
:1004180082318031B7208231200020080319242A34
:1004280081312621823118302000D9008330DA004A
:100438008231742282312100911611162000A00108
:1004480023009D1C292A9D139D171D1D102A9D13ED
:100458009D17102A7C088231AB2282312000CB0004
:10046800CC014B08F4004C08F500F6017C08860026
:100478008701010882319022823174082000CD0062
:100488007508CE007608CF004D08833107238231E6
:1004980020004E0883310723080021001C08F500BE
:1004A8001B08F400F601F60A7C088600870101089B
:1004B80082319022823174082000CB007508CC006C
:1004C8007608CD004B0883310723823120004C0881
:1004D80083310723823120004D0883310723080028
:1004E8002000DC01DD0159085C0784005A085D3DE5
:1004F800850012000319080059085C0784005A088F
:100508005D3D850000088231FD22823101302000E6
:10051800DC070030DD3D772AF80079087806803955
:100528007806F900760803199B2AF9179C2AF9130B
:100538007408F7007708FA007508F7007708FB00D9
:100548007908F4007A08F5007B08F6000800F30043
:100558007308023E86008701403FF000413FF100EA
:1005680070088600710887000130F200730A840061
:100578008501000AC02AF235890BBF2A72080105D5
:100588000800F5007508063E860087010114750805
:100598008231AB22F4007508063E86008701F40D0F
:1005A80001087406FD397406810008002000DB008C
:1005B800DA015B1CE32A5808D9005908DA07031046
:1005C800D80D0310DB0C5B08031DDD2A5A08080050
:1005D800F200F301721CF42A7008F1007108F307A5
:1005E8000310F00D0310F20C7208031DEE2A7308B5
:1005F80008002000D80023009E1CFF2A200058086D
:1006080023009A000800F00023009E1C082B7008A5
:100618009A000800640080010131890B0F2B003417
:0C0628002000A001A00A08005634003495
:020000040001F9
:04000E00E4FFFFFE0E
:00000001FF
