:040000008031A12882
:100008007E14803120007F08F800FA01FB01931D5F
:10001800392828001E11FC01FD017D08803AF700EF
:1000280080307702031D1A2806307C02031837280F
:100038000630F7007708F0007C0882318B22803187
:10004800213E8131DB2180310130FC070030FD3D4C
:100058007D08803AF70080307702031D3528063086
:100068007C02031C1C2820009311111F4C282130EE
:10007800F7007708F0000130213E86008701413FF4
:100088008A00403F0A00803121009D102000111392
:10009800911E552823001908F7007708F900200059
:1000A8009112911C5B2821009D14200091102700BB
:1000B800931C68280130FA000030FB002730823199
:1000C8001322803127009310131D74280130FA0081
:1000D8000030FB002D3082311322803127001311AC
:1000E800931D80280130FA000030FB003330823144
:1000F8001322803127009311131E8C280130FA0037
:100108000030FB003930823113228031270013126E
:10011800931E97280130FA000030FB003F308231EF
:100128001322270093127A087B042800031D1E154A
:1001380078082000FF007E1009008031A3282030B5
:1001480084000030850025308231B4227E102000E2
:100158008231392A2000CC01CD014D08803AC900EE
:1001680080304902031DBA2806304C0203181829AA
:1001780020004C08C9000630CA004A08C5004C08CF
:10018800823179228031213E86008701200049088A
:1001980081000C30C9000030CA000630CB004B0883
:1001A800C5004C08823179228031043E213E860008
:1001B800870120004908C03F4A08C13F4C08C900D0
:1001C8000630CA004A08C5004C08823179228031BD
:1001D800033E213E860087012000C90DC90D010894
:1001E8004906E339490681000630C9004908C500B7
:1001F8004C08823179228031013E213E86008701F8
:10020800C030C03F0230C13F01302000CC07003071
:10021800CD3D4D08803AC90080304902031D16299A
:1002280006304C02031CBC28C1302000A20002305A
:10023800A300BA30AE000230AF00080087292300BF
:100248009F112B2923009F112F2923009F151E1171
:10025800302923009F151E1523001F142000911E0E
:100268003229230019082000C5004508C6002300CC
:100278001B081C040319442901309B0200309C3BD5
:100288009F1F5C299F1320004A08003A03194D2933
:1002980030294908003A03192329013A0319262964
:1002A800033A03192929013A03192D29302930293C
:1002B8009F1961291C08031D47292000C701C8018F
:1002C8004808803AC50080304502031D6D29023078
:1002D8004702031808002000911E6F29553023009B
:1002E800190603198B2901302000C9070030CA3DBF
:1002F8004A08803AC50080304502031D852904302C
:100308004902031C47292000C901CA0147290130B5
:100318002000C7070030C83D642938302100990003
:10032800C8308B000E108E100E118E1122008E0117
:1003380021000C1423000C1421008C1423008C10B1
:1003480021000C1523000C1121008C150C1623001C
:100358000C1221008C1627009214121512169115F2
:100368009116013021009D0080309E00200011135D
:10037800210011177F3020009C00210091142030AB
:1003880028009E007D309D002100931522009D17B6
:100398001D1523009F151E1500309C000C309B0076
:1003A8001E129D179E161D16210091160800F600B4
:1003B8007608033E86008701011C08007608033E84
:1003C80086008701010C0139F4007608043E860096
:1003D8008701403FF000413FF1007608033E860068
:1003E8008701010C890C0739F5007508F200823184
:1003F8009C2281317406031D08007608F4007408F5
:10040800F000760A86008701413F8A00403F0A00D3
:1004180082317608033E8600870101100800F60045
:100428007608033E8600870101147608043E86009C
:100438008701403FF000413FF1007608033E860007
:100448008701010C890C0739F4007408F200823125
:100458009C22F5007608033E86008701F50D010809
:100468007506FD39750681000800813191218231B8
:100478008031AE208231200020080319532A8131AF
:1004880022218231BE302000C6008230C70082316E
:100498005D2282312100911611162000A00123004F
:1004A8009D1C582A9D139D171D1D3F2A9D139D179E
:1004B8003F2A2000C901CA014608490784004708A5
:1004C8004A3D8500120003190800460849078400C0
:1004D80047084A3D850000088231AA22823101304E
:1004E8002000C9070030CA3D602A2000C800C701A3
:1004F800481C822A4508C6004608C7070310C50DD0
:100508000310C80C4808031D7C2A47080800F2009D
:10051800F301721C932A7008F1007108F3070310A5
:10052800F00D0310F20C7208031D8D2A73080800E1
:1005380070088600710887000130F300720AA52A46
:10054800F335890BA42A7308010508002000C500AB
:1005580023009E1CAC2A2000450823009A000800AE
:10056800640080010131890BB52A00342000A00104
:0C057800A00A08005634003408000800F7
:020000040001F9
:04000E00E4FFFFFE0E
:00000001FF
