:0400000080317228B1
:100008007E14803120007F08B000111F2628BB30E5
:10001800A0008130A10021001C082000A3002100BD
:100028001B082000A2003130803178208031313027
:10003800F1000030F20082315C22803121009D10F5
:1000480020001113911E2F28230019082000AF004B
:100058002F08C0009112911C352821009D14200002
:1000680091102700931C4128A130F1008130F20043
:1000780082315C22803127009310931D4C28783000
:10008800F1008130F20082315C2280312700931127
:10009800931E57284F30F1008130F20082315C22E4
:1000A800803127009312131D5D282800171527009B
:1000B80013112000931C6C282800171120000C191C
:1000C800682822000E146A2822000E1020009310BF
:1000D800630020003008FF007E100900803174287A
:1000E8007E1020008231762A2000AD002230A40044
:1000F8002408A8002108A5002008A400A00A0319C4
:10010800A10A24088400250885000008A6002608FE
:10011800AE002E080319402925302E060319A02801
:100128002E08A4002D0886008701240881000130CC
:10013800A4002408AD077E28A9012108A5002008ED
:10014800A400A00A0319A10A240884002508850030
:100158000008AE00003A03194029643A0319B82888
:100168000D3A0319B8287E28280886008701403FE1
:10017800AB00413FAC000230A4002408A807AC1F24
:10018800CE280330A4002408A904AB09AC09AB0AA3
:100198000319AC0AAE01AE0A05302E060319F3287E
:1001A8002E08A400A501A435A50D45302407840018
:1001B8008130253D8500003FA600013FA7002708A4
:1001C8002C02031DE92826082B02031CF328013002
:1001D800A4002408AE0705302E06031DD4282908DC
:1001E8000339031902292D30A4002D088600870140
:1001F800240881000130A4002408AD072E08A400BB
:100208002408AA00FF30A4002408AA072A0A031910
:100218007E280A30F8000030F9002A08A400A50159
:10022800A435A50D4530240784008130253D85007F
:10023800003FF000013FF1002C08F3002B08F2000A
:100248008131FC2180317108FB007008FA0082318D
:10025800302280317808303E2000A6002608AE0003
:100268002E08A4002D08860087012408810001308B
:10027800A4002408AD0706292D08860087018101FE
:100288000800013400340A34003464340034E8349B
:1002980003341034273443346F346E347434613487
:1002A800633474342034733465346E3473346F3487
:1002B8007234203431342034683461346434203466
:1002C8006234653465346E3420346434693473348C
:1002D80063346F346E346E34653463347434653427
:1002E80064342E340A34003443346F346E34743436
:1002F8006134633474342034733465346E34733445
:100308006F347234203431342034683461347334B7
:1003180020346234653465346E342034643469348E
:10032800733463346F346E346E34653463347434C8
:10033800653464342E340A34003453346D346F34E5
:100348006B34653420346834613473342034623457
:10035800653465346E3420346434653474346534FB
:1003680063347434653464342E340A3400342034ED
:100378002534643400345830210099000E108E1052
:100388000E1122008E0121000C1423000C142100F0
:100398000C1523000C118B170B178B15013021003E
:1003A8009D0080309E0020001113210011177F301E
:1003B80020009C0020302800970022009D171D1562
:1003C80023009F111E1500309C0005309B001E1253
:1003D8009D179E161D1621009116270092141215BE
:1003E8009115911611152100911493148B1708007B
:1003F800F501F6017008710403192B2AF701F70AB1
:10040800F11B102A0130F035F10D890B072A013054
:10041800F4007408F707042A0130F535F60D890B46
:10042800112A71087302031D1B2A70087202031C2B
:10043800222A7008F2027108F33B75140130F13674
:10044800F00C890B232A0130F702031D102A7608C5
:10045800F1007508F0000800780879040319572A94
:10046800FD01FD0AF91B422A0130F835F90D890B07
:10047800392A0130FC007C08FD07362A79087B02FE
:10048800031D482A78087A02031C4E2A7808FA02C3
:100498007908FB3B0130F936F80C890B4F2A0130FB
:1004A800FD02031D422A7B08F9007A08F8000800BB
:1004B800F401F5017108740784007208753D850020
:1004C8001200031908007108740784007208753D4A
:1004D8008500000882317D2282310130F407003026
:1004E800F53D5E2A8131BF21823121009D146300D0
:1004F8007C2AF00023009E1C7E2A70089A000800BF
:020000040001F9
:04000E00E4FFFFFE0E
:00000001FF
