:040000008131082919
:100008007E14803120007F08B300C401C501931D10
:100018007B2828001E112000C901CA014A08803A1D
:10002800AF0080302F02031D1B280530490203183A
:10003800792807302000AF002F08F00049088331E5
:10004800E5238031043EA03E86008701403F200022
:10005800C600413FC700423FC800461C6A28460CFC
:100068000139AF000730B0003008F000490883318B
:10007800E5238031013EA03E86008701403FF40021
:10008800413FF50007302000B1003108F000490871
:100098008331E5238031033EA03E860087010108B5
:1000A8002000B2003208F6008331F62380312000A8
:1000B8002F06031D6A280130463E86008701413F0E
:1000C8008A00403F0A008031200046100130C907ED
:1000D8000030CA3D4A08803AAF0080302F02031D25
:1000E800772805304902031C1D2820009311111F91
:1000F8009828CA30A0008330A10021001C082000E5
:10010800A30021001B082000A200343081311521F2
:1001180080313430F1000030F2008331A623803181
:1001280021009D1020001113911EA12823001908F9
:100138002000AF002F08C3009112911CA7282100AE
:100148009D14200091102700931CB928013020002D
:10015800C4000030C50021002414A41020008C1C09
:10016800B7282100A41427009310131DCA280130B2
:100178002000C4000030C50021002B14AB10200063
:100188000C1DC8282100AB1427001311931DDB2870
:1001980001302000C4000030C50021003214B21024
:1001A80020008C1DD9282100B21427009311131E9A
:1001B800EC2801302000C4000030C50021003914AB
:1001C800B91020000C1EEA282100B91427001312C8
:1001D800931EFD2801302000C4000030C500210016
:1001E8004014C01020008C1EFB282100C0142700DA
:1001F80093122000440845042800031D1E15200002
:100208003308FF007E10090081310A29A0308400DC
:1002180000308500243084311C247E102000833176
:10022800672B2000AD002230A4002408A800210874
:10023800A5002008A400A00A0319A10A2408840024
:10024800250885000008A6002608AE002E08031918
:10025800DD2925302E0603193D292E08A4002D0876
:1002680086008701240881000130A4002408AD0716
:100278001B29A9012108A5002008A400A00A031928
:10028800A10A24088400250885000008AE00003A69
:100298000319DD29643A031955290D3A031955291B
:1002A8001B29280886008701403FAB00413FAC006E
:1002B8000230A4002408A807AC1F6B290330A4004F
:1002C8002408A904AB09AC09AB0A0319AC0AAE01AE
:1002D800AE0A05302E06031990292E08A400A501A0
:1002E800A435A50DC030240784008330253D850042
:1002F800003FA600013FA70027082C02031D8629FE
:1003080026082B02031C90290130A4002408AE07FC
:1003180005302E06031D71292908033903199F2961
:100328002D30A4002D0886008701240881000130A3
:10033800A4002408AD072E08A4002408AA00FF3052
:10034800A4002408AA072A0A03191B290A30F8005E
:100358000030F9002A08A400A501A435A50DC03075
:10036800240784008330253D8500003FF000013FCD
:10037800F1002C08F3002B08F200833107238131A8
:100388007108FB007008FA0083313B23813178083B
:10039800303E2000A6002608AE002E08A4002D0836
:1003A80086008701240881000130A4002408AD07D5
:1003B800A3292D088600870181010800472A230008
:1003C8009F11EB2923009F11EF2923009F151E1170
:1003D800F02923009F151E1523001F142000911ECD
:1003E800F229230019082100C4004408C50023008D
:1003F8001B081C040319042A01309B0200309C3B93
:100408009F1F1C2A9F1321004908003A03190D2A2F
:10041800F0294808003A0319E329013A0319E629A3
:10042800033A0319E929013A0319ED29F029F029BA
:100438009F19212A1C08031D072A2100C601C7018C
:100448004708803AC40080304402031D2D2A023038
:100458004602031808002000911E2F2A5530230059
:10046800190603194B2A01302100C8070030C93D7D
:100478004908803AC40080304402031D452A0430EC
:100488004802031C072A2100C801C901072A0130B4
:100498002100C6070030C73D242A2100CB01CC012A
:1004A8004C08803AC80080304802031D5D2A053098
:1004B8004B020318B72A21004B08C8000730C900AF
:1004C8004908C4004B088331D3238231A03E8600FB
:1004D80087012100480881000C30C8000030C9009D
:1004E8000730CA004A08C4004B088331D32382313D
:1004F800013EA03E8600870121004808C03F490808
:10050800C13F4B08013EC8000730C9004908C40074
:100518004B088331D3238231033EA03E86008701F6
:100528002100480881000730C8004808C4004B086B
:100538008331D3238231053EA03E860087010E30E9
:10054800C03F0430C13F01302100CB070030CC3D13
:100558004C08803AC80080304802031DB52A05308F
:100568004B02031C5F2A22302100AC000430AD008E
:100578000800383021009900C8308B000E108E100A
:100588000E118E1122008E0121000C1423000C1470
:1005980021008C1423008C1021000C1523000C1151
:1005A80021008C150C1623000C1221008C16270034
:1005B80092141215121691159116013021009D0002
:1005C80080309E0020001113210011177F30200079
:1005D8009C0021009114203028009E007D309D0051
:1005E8002100931522009D171D1523009F151E1528
:1005F80000309C000C309B001E129D179E161D1685
:10060800210091160800F501F6017008710403191C
:10061800362BF701F70AF11B1B2B0130F035F10DD2
:10062800890B122B0130F4007408F7070F2B0130E7
:10063800F535F60D890B1C2B71087302031D262B4B
:1006480070087202031C2D2B7008F2027108F33B2C
:1006580075140130F136F00C890B2E2B0130F7029E
:10066800031D1B2B7608F1007508F00008007808B8
:1006780079040319622BFD01FD0AF91B4D2B01308A
:10068800F835F90D890B442B0130FC007C08FD0777
:10069800412B79087B02031D532B78087A02031C2F
:1006A800592B7808FA027908FB3B0130F936F80C27
:1006B800890B5A2B0130FD02031D4D2B7B08F900D5
:1006C8007A08F80008008231BD2283318231512234
:1006D8008331210043080319802B8131E2218331C2
:1006E800D1302100C5008330C60083318A2383318D
:1006F800210091161116C30123009D1C852B9D1303
:100708009D171D1D6D2B9D139D176D2B2100C80175
:10071800C9014508480784004608493D850012007C
:10072800031908004508480784004608493D850024
:10073800000884310424833101302100C8070030C7
:10074800C93D8D2BF401F501710874078400720806
:10075800753D8500120003190800710874078400AC
:100768007208753D850000088431152483310130F5
:10077800F4070030F53DA82B013400340A34003466
:1007880064340034E83403341034273420342534F6
:100798006434003478347934003456340034210019
:1007A800C700C601471CDC2B4408C5004508C6071E
:1007B8000310C40D0310C70C4708031DD62B4608A9
:1007C8000800F200F301721CED2B7008F1007108AB
:1007D800F3070310F00D0310F20C7208031DE72B4A
:1007E8007308080074088600750887000130F70050
:1007F800760AFF2BF735890BFE2B770801050800D1
:100808002100C40023009E1C062C2100440823005C
:100818009A000800CE30F1008330F2008331A6231D
:100828000800F00023009E1C162C70089A0008008F
:10083800640080010131890B1D2C00342100C301A3
:04084800C30A0800D7
:020000040001F9
:04000E00E4FFFFFE0E
:00000001FF
