:040000008031BE2865
:100008007E14803120007F08D500E601E701931DAA
:100018003C2828001E112000E801E9016908803AFF
:10002800D40080305402031D1B28063068020318D0
:100038003A2806302000D4005408F00068088331BC
:10004800DE238031213E8231E422803101302000DC
:10005800E8070030E93D6908803AD400803054024E
:10006800031D382806306802031C1D282000931140
:10007800111F63280330213E86008701413F8A0013
:10008800403F0A008031C3302000C5008330C600DD
:1000980021001C082000C80021001B082000C70000
:1000A80056308031CB2080315630F1000030F200DC
:1000B80083319F23803121009D1020001113911E50
:1000C8006C28230019082000D4005408E500911278
:1000D800911C722821009D14200091102700931C68
:1000E800802801302000E6000030E7002730833107
:1000F8006323803127009310131D8D2801302000C1
:10010800E6000030E7002D3083316323803127007B
:100118001311931D9A2801302000E6000030E700F3
:10012800333083316323803127009311131EA728AE
:1001380001302000E6000030E700393083316323C6
:10014800803127001312931EB32801302000E600E7
:100158000030E7003F3083316323270093122000EB
:10016800660867042800031D1E1520005508FF00B7
:100178007E1009008031C0282030840000308500BE
:100188002530843115247E10200083313F2B200038
:10019800D2004730C9004908CD004608CA004508C2
:1001A800C900C50A0319C60A490884004A08850017
:1001B8000008CB004B08D3005308031993292530B6
:1001C80053060319F3285308C9005208860087010B
:1001D800490881000130C9004908D207D128CE0159
:1001E8004608CA004508C900C50A0319C60A4908CD
:1001F80084004A0885000008D300003A03199329AF
:10020800643A03190B290D3A03190B29D1284D0813
:1002180086008701403FD000413FD1000230C9002D
:100228004908CD07D11F21290330C9004908CE0448
:10023800D009D109D00A0319D10AD301D30A05304C
:100248005306031946295308C900CA01C935CA0DFE
:10025800B9304907840083304A3D8500003FCB0010
:10026800013FCC004C085102031D3C294B085002A9
:10027800031C46290130C9004908D3070530530635
:10028800031D27294E080339031955292D30C900A4
:10029800520886008701490881000130C9004908D1
:1002A800D2075308C9004908CF00FF30C9004908E0
:1002B800CF074F0A0319D1280A30F8000030F90097
:1002C8004F08C900CA01C935CA0DB93049078400A9
:1002D80083304A3D8500003FF000013FF10051089E
:1002E800F3005008F2008231B02280317108FB001F
:1002F8007008FA008331132380317808303E2000DB
:10030800CB004B08D3005308C90052088600870168
:10031800490881000130C9004908D2075929520803
:100328008600870181010800FD2923009F11A1296A
:1003380023009F11A52923009F151E11A62923001C
:100348009F151E1523001F142000911EA8292300A5
:1003580019082100A0002008A10023001B081C0484
:100368000319BA2901309B0200309C3B9F1FD229F8
:100378009F1321002508003A0319C329A629240838
:10038800003A03199929013A03199C29033A0319D8
:100398009F29013A0319A329A629A6299F19D72914
:1003A8001C08031DBD292100A201A3012308803ACE
:1003B800A00080302002031DE32902302202031826
:1003C80008002000911EE52955302300190603195D
:1003D800012A01302100A4070030A53D2508803AF4
:1003E800A00080302002031DFB2904302402031CD6
:1003F800BD292100A401A501BD2901302100A207C2
:100408000030A33DDA292100A701A8012808803A75
:10041800A40080302402031D132A06302702031883
:100428005C2A0C302100A4000030A5000630A6008C
:100438002608A00027088331CC238231213E86007C
:10044800870121002408C03F2508C13F2708013E35
:10045800A4000630A5002508A00027088331CC2376
:100468008231023E213E8600870121002408810056
:100478000630A4002408A00027088331CC23823149
:10048800033E213E860087010730C03F0430C13F4C
:1004980001302100A7070030A83D2808803AA400B1
:1004A80080302402031D5A2A06302702031C152A0D
:1004B8001F302000A4000430A5001B30B000043019
:1004C800B1000800383021009900C8308B000E10A8
:1004D8008E100E118E1122008E0121000C142300A3
:1004E8000C1421008C1423008C1021000C152300FF
:1004F8000C1121008C150C1623000C1221008C16EF
:100508002700921412151216911591160130210028
:100518009D0080309E0020001113210011177F30AC
:1005280020009C0021009114203028009E007D307E
:100538009D002100931522009D171D1523009F156E
:100548001E1500309C000C309B001E129D179E1635
:100558001D16210091160800F501F60170087104B6
:100568000319DF2AF701F70AF11BC42A0130F03515
:10057800F10D890BBB2A0130F4007408F707B82A7B
:100588000130F535F60D890BC52A71087302031D74
:10059800CF2A70087202031CD62A7008F20271086A
:1005A800F33B75140130F136F00C890BD72A013072
:1005B800F702031DC42A7608F1007508F000080048
:1005C800F7007708053E86008701011C08007708B8
:1005D800053E86008701010C0139F6007708860080
:1005E8008701403FF000413FF1007708860087010E
:1005F800423FF2008331EF2382317606031D080063
:100608007708033E86008701413F8A00403F0A0081
:1006180083317708053E86008701011008007808B5
:10062800790403193A2BFD01FD0AF91B252B01302A
:10063800F835F90D890B1C2B0130FC007C08FD07EF
:10064800192B79087B02031D2B2B78087A02031CCF
:10065800312B7808FA027908FB3B0130F936F80C9F
:10066800890B322B0130FD02031D252B7B08F90075
:100678007A08F80008008231662283318231072225
:100688008331200020080319592B813198218331A7
:10069800CA302100A1008330A20083318323833133
:1006A8002100911611162000A00123009D1C5E2B2D
:1006B8009D139D171D1D452B9D139D17452BF5005B
:1006C8007508053E860087010114750886008701B4
:1006D800403FF000413FF100750886008701423F26
:1006E800F2008331EF23F4007508053E8600870188
:1006F800F40D01087406FD39740681000800210014
:10070800A401A5012108240784002208253D8500AD
:100718001200031908002108240784002208253D37
:10072800850000088331FD23833101302100A407AF
:100738000030A53D862BF401F5017108740784008B
:100748007208753D850012000319080071087407C6
:1007580084007208753D8500000884310E248331B9
:100768000130F4070030F53DA12B013400340A3480
:10077800003464340034E83403341034273420342B
:1007880025346434003478347934003456340034F1
:100798002100A300A201231CD52B2008A1002108B9
:1007A800A2070310A00D0310A30C2308031DCF2BD1
:1007B80022080800F200F301721CE62B7008F10011
:1007C8007108F3070310F00D0310F20C7208031DF3
:1007D800E02B730808007008860071088700013054
:1007E800F300720AF82BF335890BF72B7308010510
:1007F80008002100A00023009E1CFF2B21002008D8
:1008080023009A000800C730F1008330F2008331DA
:100818009F230800F00023009E1C0F2C70089A00EC
:100828000800640080010131890B162C0034200077
:08083800A001A00A080008005D
:020000040001F9
:04000E00E4FFFFFE0E
:00000001FF
