:040000008031B4286F
:100008007E14803120007F08B000C101C201931D19
:100018003C2828001E112000C301C4014408803A6E
:10002800AF0080302F02031D1B2805304302031840
:100038003A2807302000AF002F08F000430883312A
:10004800E1238031463E8231E722803101302000B1
:10005800C3070030C43D4408803AAF0080302F0207
:10006800031D382805304302031C1D282000931166
:10007800111F5928C630A0008330A10021001C0898
:100088002000A30021001B082000A200313080318D
:10009800C12080313130F1000030F2008331A223D9
:1000A800803121009D1020001113911E6228230029
:1000B80019082000AF002F08C0009112911C682871
:1000C80021009D14200091102700931C76280130F0
:1000D8002000C1000030C2004630833166238031E1
:1000E80027009310131D832801302000C100003021
:1000F800C2004D3083316623803127001311931DD0
:10010800902801302000C1000030C20054308331F3
:100118006623803127009311131E9D28013020008B
:10012800C1000030C2005B30833166238031270074
:100138001312931EA92801302000C1000030C2000C
:10014800623083316623270093122000410842045D
:100158002800031D1E1520003008FF007E1009002E
:100168008031B62845308400003085002430843141
:1001780018247E1020008331422B2000AD0022304D
:10018800A4002408A8002108A5002008A400A00AAB
:100198000319A10A24088400250885000008A60080
:1001A8002608AE002E080319892925302E060319C2
:1001B800E9282E08A4002D0886008701240881005C
:1001C8000130A4002408AD07C728A9012108A5000B
:1001D8002008A400A00A0319A10A240884002508FD
:1001E80085000008AE00003A03198929643A03190A
:1001F80001290D3A03190129C72828088600870113
:10020800403FAB00413FAC000230A4002408A807DF
:10021800AC1F17290330A4002408A904AB09AC09B2
:10022800AB0A0319AC0AAE01AE0A05302E06031953
:100238003C292E08A400A501A435A50DBC3024072F
:1002480084008330253D8500003FA600013FA700BC
:1002580027082C02031D322926082B02031C3C29DF
:100268000130A4002408AE0705302E06031D1D2901
:100278002908033903194B292D30A4002D088600BD
:100288008701240881000130A4002408AD072E0846
:10029800A4002408AA00FF30A4002408AA072A0AF8
:1002A8000319C7280A30F8000030F9002A08A4000A
:1002B800A501A435A50DBC30240784008330253D55
:1002C8008500003FF000013FF1002C08F3002B08E7
:1002D800F2008231B32280317108FB007008FA0005
:1002E8008331162380317808303E2000A600260886
:1002F800AE002E08A4002D0886008701240881007E
:100308000130A4002408AD074F292D088600870175
:1003180081010800F32923009F11972923009F11C9
:100328009B2923009F151E119C2923009F151E152C
:1003380023001F142000911E9E2923001908210064
:10034800A0002008A10023001B081C040319B029E1
:1003580001309B0200309C3B9F1FC8299F1321003E
:100368002508003A0319B9299C292408003A0319D9
:100378008F29013A03199229033A03199529013A59
:10038800031999299C299C299F19CD291C08031D0B
:10039800B3292100A201A3012308803AA0008030DC
:1003A8002002031DD9290230220203180800200068
:1003B800911EDB295530230019060319F72901304E
:1003C8002100A4070030A53D2508803AA000803010
:1003D8002002031DF12904302402031CB329210043
:1003E800A401A501B32901302100A2070030A33DD3
:1003F800D0292100A701A8012808803AA40080304C
:100408002402031D092A053027020318632A210044
:100418002708A4000730A5002508A0002708833175
:10042800CF238131463E86008701210024088100C0
:100438000C30A4000030A5000730A6002608A00054
:1004480027088331CF238131013E463E860087014C
:1004580021002408C03F2508C13F2708013EA40009
:100468000730A5002508A00027088331CF23813154
:10047800033E463E8600870121002408810007309C
:10048800A4002408A00027088331CF238131053E2A
:10049800463E860087010A30C03F0430C13F013024
:1004A8002100A7070030A83D2808803AA400803022
:1004B8002402031D612A05302702031C0B2A1E3063
:1004C8002000D2000430D300080038302100990001
:1004D800C8308B000E108E100E118E1122008E0166
:1004E80021000C1423000C1421008C1423008C1000
:1004F80021000C1523000C1121008C150C1623006B
:100508000C1221008C162700921412151216911540
:100518009116013021009D0080309E0020001113AB
:10052800210011177F3020009C00210091142030F9
:1005380028009E007D309D002100931522009D1704
:100548001D1523009F151E1500309C000C309B00C4
:100558001E129D179E161D16210091160800F50102
:10056800F601700871040319E22AF701F70AF11B72
:10057800C72A0130F035F10D890BBE2A0130F4008D
:100588007408F707BB2A0130F535F60D890BC82A20
:1005980071087302031DD22A70087202031CD92A3B
:1005A8007008F2027108F33B75140130F136F00C53
:1005B800890BDA2A0130F702031DC72A7608F100F1
:1005C8007508F0000800F7007708043E86008701E8
:1005D800011C08007708043E86008701010C0139D8
:1005E800F600770A86008701403FF000413FF1009E
:1005F800770886008701433FF2008331F223823176
:100608007606031D08007708053E86008701413FEE
:100618008A00403F0A0083317708043E860087013C
:10062800011008007808790403193D2BFD01FD0A23
:10063800F91B282B0130F835F90D890B1F2B0130D8
:10064800FC007C08FD071C2B79087B02031D2E2B60
:1006580078087A02031C342B7808FA027908FB3BE5
:100668000130F936F80C890B352B0130FD02031DDA
:10067800282B7B08F9007A08F800080082316922E3
:1006880083318131FD2183312000450803195C2B1A
:1006980081318E218331CD302100A1008330A20029
:1006A8008331862383312100911611162000C5015C
:1006B80023009D1C612B9D139D171D1D482B9D1309
:1006C8009D17482BF5007508043E86008701011424
:1006D800750A86008701403FF000413FF100750828
:1006E80086008701433FF2008331F223F400750846
:1006F800043E86008701F40D01087406FD3974066E
:10070800810008002100A401A50121082407840014
:100718002208253D85001200031908002108240736
:1007280084002208253D8500000884310024833197
:1007380001302100A4070030A53D892BF401F50103
:100748007108740784007208753D8500120003194A
:1007580008007108740784007208753D8500000858
:100768008431112483310130F4070030F53DA42B86
:10077800013400340A34003464340034E834033477
:1007880010342734203425346434003478347934F0
:100798000034563400342100A300A201231CD82BB6
:1007A8002008A1002108A2070310A00D0310A30C24
:1007B8002308031DD22B22080800F200F301721C43
:1007C800E92B7008F1007108F3070310F00D03100E
:1007D800F20C7208031DE32B7308080070088600EA
:1007E800710887000130F300720AFB2BF335890B7F
:1007F800FA2B7308010508002100A00023009E1CA5
:10080800022C2100200823009A000800CA30F100B9
:100818008330F2008331A2230800F00023009E1CDD
:10082800122C70089A000800640080010131890BBD
:0C083800192C00342000C501C50A08007E
:020000040001F9
:04000E00E4FFFFFE0E
:00000001FF
